{
  "abi": [
    {
      "inputs": [],
      "stateMutability": "nonpayable",
      "type": "constructor"
    },
    {
      "inputs": [],
      "name": "Barista__NotEnough",
      "type": "error"
    },
    {
      "inputs": [],
      "name": "Barista__WithdrawFailed",
      "type": "error"
    },
    {
      "anonymous": false,
      "inputs": [
        {
          "indexed": true,
          "internalType": "address",
          "name": "from",
          "type": "address"
        },
        {
          "indexed": false,
          "internalType": "uint256",
          "name": "timestamp",
          "type": "uint256"
        },
        {
          "indexed": false,
          "internalType": "string",
          "name": "name",
          "type": "string"
        },
        {
          "indexed": false,
          "internalType": "string",
          "name": "message",
          "type": "string"
        }
      ],
      "name": "NewCoffee",
      "type": "event"
    },
    {
      "inputs": [
        {
          "internalType": "string",
          "name": "name",
          "type": "string"
        },
        {
          "internalType": "string",
          "name": "message",
          "type": "string"
        }
      ],
      "name": "buy",
      "outputs": [],
      "stateMutability": "payable",
      "type": "function"
    },
    {
      "inputs": [],
      "name": "getAll",
      "outputs": [
        {
          "components": [
            {
              "internalType": "address",
              "name": "from",
              "type": "address"
            },
            {
              "internalType": "uint256",
              "name": "timestamp",
              "type": "uint256"
            },
            {
              "internalType": "string",
              "name": "name",
              "type": "string"
            },
            {
              "internalType": "string",
              "name": "message",
              "type": "string"
            }
          ],
          "internalType": "struct Barista.Coffee[]",
          "name": "",
          "type": "tuple[]"
        }
      ],
      "stateMutability": "view",
      "type": "function"
    },
    {
      "inputs": [],
      "name": "getTotalCoffee",
      "outputs": [
        {
          "internalType": "uint256",
          "name": "",
          "type": "uint256"
        }
      ],
      "stateMutability": "view",
      "type": "function"
    },
    {
      "inputs": [],
      "name": "owner",
      "outputs": [
        {
          "internalType": "address payable",
          "name": "",
          "type": "address"
        }
      ],
      "stateMutability": "view",
      "type": "function"
    },
    {
      "inputs": [],
      "name": "total",
      "outputs": [
        {
          "internalType": "uint256",
          "name": "",
          "type": "uint256"
        }
      ],
      "stateMutability": "view",
      "type": "function"
    },
    {
      "inputs": [],
      "name": "withdraw",
      "outputs": [],
      "stateMutability": "nonpayable",
      "type": "function"
    },
    {
      "stateMutability": "payable",
      "type": "receive"
    }
  ],
  "bytecode": {
    "object": "0x60a060405234801561001057600080fd5b50336080526080516107e56100366000396000818160ee015261014801526107e56000f3fe6080604052600436106100595760003560e01c80632ddbd13a146100655780633ccfd60b1461008e5780634839ee3f146100a557806353ed5143146100ba5780638da5cb5b146100dc578063c63e529b1461012857600080fd5b3661006057005b600080fd5b34801561007157600080fd5b5061007b60005481565b6040519081526020015b60405180910390f35b34801561009a57600080fd5b506100a361013b565b005b3480156100b157600080fd5b5060015461007b565b3480156100c657600080fd5b506100cf61019e565b6040516100859190610592565b3480156100e857600080fd5b506101107f000000000000000000000000000000000000000000000000000000000000000081565b6040516001600160a01b039091168152602001610085565b6100a36101363660046106dc565b610341565b6040516001600160a01b037f000000000000000000000000000000000000000000000000000000000000000016904780156108fc02916000818181858888f1935050505061019c57604051632fb54dd760e11b815260040160405180910390fd5b565b60606001805480602002602001604051908101604052809291908181526020016000905b82821015610338576000848152602090819020604080516080810182526004860290920180546001600160a01b031683526001810154938301939093526002830180549293929184019161021590610740565b80601f016020809104026020016040519081016040528092919081815260200182805461024190610740565b801561028e5780601f106102635761010080835404028352916020019161028e565b820191906000526020600020905b81548152906001019060200180831161027157829003601f168201915b505050505081526020016003820180546102a790610740565b80601f01602080910402602001604051908101604052809291908181526020018280546102d390610740565b80156103205780601f106102f557610100808354040283529160200191610320565b820191906000526020600020905b81548152906001019060200180831161030357829003601f168201915b505050505081525050815260200190600101906101c2565b50505050905090565b3466038d7ea4c6800011156103695760405163d740e81760e01b815260040160405180910390fd5b6040805160808101825233815242602080830191825292820185815260608301859052600180548082018255600091909152835160049091027fb10e2d527612073b26eecdfd717e6a320cf44b4afac2b0732d9fcbe2b7fa0cf6810180546001600160a01b03939093166001600160a01b031990931692909217825592517fb10e2d527612073b26eecdfd717e6a320cf44b4afac2b0732d9fcbe2b7fa0cf78401559051805193949193610444937fb10e2d527612073b26eecdfd717e6a320cf44b4afac2b0732d9fcbe2b7fa0cf8019291909101906104ac565b50606082015180516104609160038401916020909101906104ac565b505050336001600160a01b03167f5d202edb9ac9aca913189e3c829f7fdbba23859e91379c70ecf7874fe39632a74284846040516104a09392919061077a565b60405180910390a25050565b8280546104b890610740565b90600052602060002090601f0160209004810192826104da5760008555610520565b82601f106104f357805160ff1916838001178555610520565b82800160010185558215610520579182015b82811115610520578251825591602001919060010190610505565b5061052c929150610530565b5090565b5b8082111561052c5760008155600101610531565b6000815180845260005b8181101561056b5760208185018101518683018201520161054f565b8181111561057d576000602083870101525b50601f01601f19169290920160200192915050565b60006020808301818452808551808352604092508286019150828160051b87010184880160005b8381101561062b57888303603f19018552815180516001600160a01b031684528781015188850152868101516080888601819052906105fa82870182610545565b915050606080830151925085820381870152506106178183610545565b9689019694505050908601906001016105b9565b509098975050505050505050565b634e487b7160e01b600052604160045260246000fd5b600082601f83011261066057600080fd5b813567ffffffffffffffff8082111561067b5761067b610639565b604051601f8301601f19908116603f011681019082821181831017156106a3576106a3610639565b816040528381528660208588010111156106bc57600080fd5b836020870160208301376000602085830101528094505050505092915050565b600080604083850312156106ef57600080fd5b823567ffffffffffffffff8082111561070757600080fd5b6107138683870161064f565b9350602085013591508082111561072957600080fd5b506107368582860161064f565b9150509250929050565b600181811c9082168061075457607f821691505b60208210810361077457634e487b7160e01b600052602260045260246000fd5b50919050565b8381526060602082015260006107936060830185610545565b82810360408401526107a58185610545565b969550505050505056fea26469706673582212209fb42ad5617a19faf943ec9b1ab536edf9a8cf650b593ba5bb6bcce429772fe364736f6c634300080d0033",
    "linkReferences": {}
  }
}